{
  "contractName": "Fundraiser",
  "abi": [
    {
      "inputs": [
        {
          "internalType": "string",
          "name": "_name",
          "type": "string"
        },
        {
          "internalType": "string",
          "name": "_url",
          "type": "string"
        },
        {
          "internalType": "string",
          "name": "_imageURL",
          "type": "string"
        },
        {
          "internalType": "string",
          "name": "_description",
          "type": "string"
        },
        {
          "internalType": "address payable",
          "name": "_beneficiary",
          "type": "address"
        },
        {
          "internalType": "address",
          "name": "_custodian",
          "type": "address"
        }
      ],
      "stateMutability": "nonpayable",
      "type": "constructor"
    },
    {
      "anonymous": false,
      "inputs": [
        {
          "indexed": true,
          "internalType": "address",
          "name": "donor",
          "type": "address"
        },
        {
          "indexed": false,
          "internalType": "uint256",
          "name": "value",
          "type": "uint256"
        }
      ],
      "name": "DonationReceived",
      "type": "event"
    },
    {
      "anonymous": false,
      "inputs": [
        {
          "indexed": true,
          "internalType": "address",
          "name": "previousOwner",
          "type": "address"
        },
        {
          "indexed": true,
          "internalType": "address",
          "name": "newOwner",
          "type": "address"
        }
      ],
      "name": "OwnershipTransferred",
      "type": "event"
    },
    {
      "anonymous": false,
      "inputs": [
        {
          "indexed": false,
          "internalType": "uint256",
          "name": "amount",
          "type": "uint256"
        }
      ],
      "name": "Withdraw",
      "type": "event"
    },
    {
      "inputs": [],
      "name": "beneficiary",
      "outputs": [
        {
          "internalType": "address payable",
          "name": "",
          "type": "address"
        }
      ],
      "stateMutability": "view",
      "type": "function"
    },
    {
      "inputs": [],
      "name": "custodian",
      "outputs": [
        {
          "internalType": "address",
          "name": "",
          "type": "address"
        }
      ],
      "stateMutability": "view",
      "type": "function"
    },
    {
      "inputs": [],
      "name": "description",
      "outputs": [
        {
          "internalType": "string",
          "name": "",
          "type": "string"
        }
      ],
      "stateMutability": "view",
      "type": "function"
    },
    {
      "inputs": [],
      "name": "donationsCount",
      "outputs": [
        {
          "internalType": "uint256",
          "name": "",
          "type": "uint256"
        }
      ],
      "stateMutability": "view",
      "type": "function"
    },
    {
      "inputs": [],
      "name": "imageURL",
      "outputs": [
        {
          "internalType": "string",
          "name": "",
          "type": "string"
        }
      ],
      "stateMutability": "view",
      "type": "function"
    },
    {
      "inputs": [],
      "name": "name",
      "outputs": [
        {
          "internalType": "string",
          "name": "",
          "type": "string"
        }
      ],
      "stateMutability": "view",
      "type": "function"
    },
    {
      "inputs": [],
      "name": "owner",
      "outputs": [
        {
          "internalType": "address",
          "name": "",
          "type": "address"
        }
      ],
      "stateMutability": "view",
      "type": "function"
    },
    {
      "inputs": [],
      "name": "renounceOwnership",
      "outputs": [],
      "stateMutability": "nonpayable",
      "type": "function"
    },
    {
      "inputs": [],
      "name": "totalDonations",
      "outputs": [
        {
          "internalType": "uint256",
          "name": "",
          "type": "uint256"
        }
      ],
      "stateMutability": "view",
      "type": "function"
    },
    {
      "inputs": [
        {
          "internalType": "address",
          "name": "newOwner",
          "type": "address"
        }
      ],
      "name": "transferOwnership",
      "outputs": [],
      "stateMutability": "nonpayable",
      "type": "function"
    },
    {
      "inputs": [],
      "name": "url",
      "outputs": [
        {
          "internalType": "string",
          "name": "",
          "type": "string"
        }
      ],
      "stateMutability": "view",
      "type": "function"
    },
    {
      "stateMutability": "payable",
      "type": "receive"
    },
    {
      "inputs": [
        {
          "internalType": "address payable",
          "name": "_beneficiary",
          "type": "address"
        }
      ],
      "name": "setBeneficiary",
      "outputs": [],
      "stateMutability": "nonpayable",
      "type": "function"
    },
    {
      "inputs": [],
      "name": "myDonationsCount",
      "outputs": [
        {
          "internalType": "uint256",
          "name": "",
          "type": "uint256"
        }
      ],
      "stateMutability": "view",
      "type": "function"
    },
    {
      "inputs": [],
      "name": "donate",
      "outputs": [],
      "stateMutability": "payable",
      "type": "function"
    },
    {
      "inputs": [],
      "name": "myDonations",
      "outputs": [
        {
          "internalType": "uint256[]",
          "name": "values",
          "type": "uint256[]"
        },
        {
          "internalType": "uint256[]",
          "name": "dates",
          "type": "uint256[]"
        }
      ],
      "stateMutability": "view",
      "type": "function"
    },
    {
      "inputs": [],
      "name": "withdraw",
      "outputs": [],
      "stateMutability": "nonpayable",
      "type": "function"
    }
  ],
  "bytecode": "0x60806040523480156200001157600080fd5b506040516200198c3803806200198c833981810160405281019062000037919062000335565b620000576200004b6200011960201b60201c565b6200012160201b60201c565b85600290805190602001906200006f929190620001e5565b50846003908051906020019062000088929190620001e5565b508360049080519060200190620000a1929190620001e5565b508260059080519060200190620000ba929190620001e5565b5081600660006101000a81548173ffffffffffffffffffffffffffffffffffffffff021916908373ffffffffffffffffffffffffffffffffffffffff1602179055506200010d816200012160201b60201c565b505050505050620005dc565b600033905090565b60008060009054906101000a900473ffffffffffffffffffffffffffffffffffffffff169050816000806101000a81548173ffffffffffffffffffffffffffffffffffffffff021916908373ffffffffffffffffffffffffffffffffffffffff1602179055508173ffffffffffffffffffffffffffffffffffffffff168173ffffffffffffffffffffffffffffffffffffffff167f8be0079c531659141344cd1fd0a4f28419497f9722a3daafe3b4186f6b6457e060405160405180910390a35050565b828054620001f39062000514565b90600052602060002090601f01602090048101928262000217576000855562000263565b82601f106200023257805160ff191683800117855562000263565b8280016001018555821562000263579182015b828111156200026257825182559160200191906001019062000245565b5b50905062000272919062000276565b5090565b5b808211156200029157600081600090555060010162000277565b5090565b6000620002ac620002a68462000463565b6200042f565b905082815260208101848484011115620002c557600080fd5b620002d2848285620004de565b509392505050565b600081519050620002eb81620005a8565b92915050565b6000815190506200030281620005c2565b92915050565b600082601f8301126200031a57600080fd5b81516200032c84826020860162000295565b91505092915050565b60008060008060008060c087890312156200034f57600080fd5b600087015167ffffffffffffffff8111156200036a57600080fd5b6200037889828a0162000308565b965050602087015167ffffffffffffffff8111156200039657600080fd5b620003a489828a0162000308565b955050604087015167ffffffffffffffff811115620003c257600080fd5b620003d089828a0162000308565b945050606087015167ffffffffffffffff811115620003ee57600080fd5b620003fc89828a0162000308565b93505060806200040f89828a01620002f1565b92505060a06200042289828a01620002da565b9150509295509295509295565b6000604051905081810181811067ffffffffffffffff8211171562000459576200045862000579565b5b8060405250919050565b600067ffffffffffffffff82111562000481576200048062000579565b5b601f19601f8301169050602081019050919050565b6000620004a382620004be565b9050919050565b6000620004b782620004be565b9050919050565b600073ffffffffffffffffffffffffffffffffffffffff82169050919050565b60005b83811015620004fe578082015181840152602081019050620004e1565b838111156200050e576000848401525b50505050565b600060028204905060018216806200052d57607f821691505b602082108114156200054457620005436200054a565b5b50919050565b7f4e487b7100000000000000000000000000000000000000000000000000000000600052602260045260246000fd5b7f4e487b7100000000000000000000000000000000000000000000000000000000600052604160045260246000fd5b620005b38162000496565b8114620005bf57600080fd5b50565b620005cd81620004aa565b8114620005d957600080fd5b50565b6113a080620005ec6000396000f3fe6080604052600436106100f75760003560e01c80635600f04f1161008a578063b90497e011610059578063b90497e014610311578063de2ed8931461033c578063ed88c68e14610367578063f2fde38b1461037157610131565b80635600f04f14610279578063715018a6146102a45780637284e416146102bb5780638da5cb5b146102e657610131565b80631f522595116100c65780631f522595146101e1578063375b74c31461020c57806338af3eed146102375780633ccfd60b1461026257610131565b80630180b97c1461013657806306fdde03146101615780631a57f7b41461018c5780631c31f710146101b857610131565b36610131576101113460085461039a90919063ffffffff16565b6008819055506009600081548092919061012a90611284565b9190505550005b600080fd5b34801561014257600080fd5b5061014b6103b0565b604051610158919061110b565b60405180910390f35b34801561016d57600080fd5b506101766103fa565b60405161018391906110a9565b60405180910390f35b34801561019857600080fd5b506101a1610488565b6040516101af929190611072565b60405180910390f35b3480156101c457600080fd5b506101df60048036038101906101da9190610e82565b6106bb565b005b3480156101ed57600080fd5b506101f661077b565b604051610203919061110b565b60405180910390f35b34801561021857600080fd5b50610221610781565b60405161022e919061103c565b60405180910390f35b34801561024357600080fd5b5061024c6107a7565b6040516102599190611057565b60405180910390f35b34801561026e57600080fd5b506102776107cd565b005b34801561028557600080fd5b5061028e6108f1565b60405161029b91906110a9565b60405180910390f35b3480156102b057600080fd5b506102b961097f565b005b3480156102c757600080fd5b506102d0610a07565b6040516102dd91906110a9565b60405180910390f35b3480156102f257600080fd5b506102fb610a95565b604051610308919061103c565b60405180910390f35b34801561031d57600080fd5b50610326610abe565b60405161033391906110a9565b60405180910390f35b34801561034857600080fd5b50610351610b4c565b60405161035e919061110b565b60405180910390f35b61036f610b52565b005b34801561037d57600080fd5b5061039860048036038101906103939190610e59565b610c6b565b005b600081836103a8919061117b565b905092915050565b6000600160003373ffffffffffffffffffffffffffffffffffffffff1673ffffffffffffffffffffffffffffffffffffffff16815260200190815260200160002080549050905090565b6002805461040790611252565b80601f016020809104026020016040519081016040528092919081815260200182805461043390611252565b80156104805780601f1061045557610100808354040283529160200191610480565b820191906000526020600020905b81548152906001019060200180831161046357829003601f168201915b505050505081565b60608060006104956103b0565b90508067ffffffffffffffff8111156104d7577f4e487b7100000000000000000000000000000000000000000000000000000000600052604160045260246000fd5b6040519080825280602002602001820160405280156105055781602001602082028036833780820191505090505b5092508067ffffffffffffffff811115610548577f4e487b7100000000000000000000000000000000000000000000000000000000600052604160045260246000fd5b6040519080825280602002602001820160405280156105765781602001602082028036833780820191505090505b50915060005b818110156106b5576000600160003373ffffffffffffffffffffffffffffffffffffffff1673ffffffffffffffffffffffffffffffffffffffff16815260200190815260200160002082815481106105fd577f4e487b7100000000000000000000000000000000000000000000000000000000600052603260045260246000fd5b90600052602060002090600202019050806000015485838151811061064b577f4e487b7100000000000000000000000000000000000000000000000000000000600052603260045260246000fd5b6020026020010181815250508060010154848381518110610695577f4e487b7100000000000000000000000000000000000000000000000000000000600052603260045260246000fd5b6020026020010181815250505080806106ad90611284565b91505061057c565b50509091565b6106c3610d63565b73ffffffffffffffffffffffffffffffffffffffff166106e1610a95565b73ffffffffffffffffffffffffffffffffffffffff1614610737576040517f08c379a000000000000000000000000000000000000000000000000000000000815260040161072e906110eb565b60405180910390fd5b80600660006101000a81548173ffffffffffffffffffffffffffffffffffffffff021916908373ffffffffffffffffffffffffffffffffffffffff16021790555050565b60095481565b600760009054906101000a900473ffffffffffffffffffffffffffffffffffffffff1681565b600660009054906101000a900473ffffffffffffffffffffffffffffffffffffffff1681565b6107d5610d63565b73ffffffffffffffffffffffffffffffffffffffff166107f3610a95565b73ffffffffffffffffffffffffffffffffffffffff1614610849576040517f08c379a0000000000000000000000000000000000000000000000000000000008152600401610840906110eb565b60405180910390fd5b6000479050600660009054906101000a900473ffffffffffffffffffffffffffffffffffffffff1673ffffffffffffffffffffffffffffffffffffffff166108fc829081150290604051600060405180830381858888f193505050501580156108b6573d6000803e3d6000fd5b507f5b6b431d4476a211bb7d41c20d1aab9ae2321deee0d20be3d9fc9b1093fa6e3d816040516108e6919061110b565b60405180910390a150565b600380546108fe90611252565b80601f016020809104026020016040519081016040528092919081815260200182805461092a90611252565b80156109775780601f1061094c57610100808354040283529160200191610977565b820191906000526020600020905b81548152906001019060200180831161095a57829003601f168201915b505050505081565b610987610d63565b73ffffffffffffffffffffffffffffffffffffffff166109a5610a95565b73ffffffffffffffffffffffffffffffffffffffff16146109fb576040517f08c379a00000000000000000000000000000000000000000000000000000000081526004016109f2906110eb565b60405180910390fd5b610a056000610d6b565b565b60058054610a1490611252565b80601f0160208091040260200160405190810160405280929190818152602001828054610a4090611252565b8015610a8d5780601f10610a6257610100808354040283529160200191610a8d565b820191906000526020600020905b815481529060010190602001808311610a7057829003601f168201915b505050505081565b60008060009054906101000a900473ffffffffffffffffffffffffffffffffffffffff16905090565b60048054610acb90611252565b80601f0160208091040260200160405190810160405280929190818152602001828054610af790611252565b8015610b445780601f10610b1957610100808354040283529160200191610b44565b820191906000526020600020905b815481529060010190602001808311610b2757829003601f168201915b505050505081565b60085481565b60006040518060400160405280348152602001428152509050600160003373ffffffffffffffffffffffffffffffffffffffff1673ffffffffffffffffffffffffffffffffffffffff16815260200190815260200160002081908060018154018082558091505060019003906000526020600020906002020160009091909190915060008201518160000155602082015181600101555050610bff3460085461039a90919063ffffffff16565b6008819055506001600954610c14919061117b565b6009819055503373ffffffffffffffffffffffffffffffffffffffff167f264f630d9efa0d07053a31163641d9fcc0adafc9d9e76f1c37c2ce3a558d2c5234604051610c60919061110b565b60405180910390a250565b610c73610d63565b73ffffffffffffffffffffffffffffffffffffffff16610c91610a95565b73ffffffffffffffffffffffffffffffffffffffff1614610ce7576040517f08c379a0000000000000000000000000000000000000000000000000000000008152600401610cde906110eb565b60405180910390fd5b600073ffffffffffffffffffffffffffffffffffffffff168173ffffffffffffffffffffffffffffffffffffffff161415610d57576040517f08c379a0000000000000000000000000000000000000000000000000000000008152600401610d4e906110cb565b60405180910390fd5b610d6081610d6b565b50565b600033905090565b60008060009054906101000a900473ffffffffffffffffffffffffffffffffffffffff169050816000806101000a81548173ffffffffffffffffffffffffffffffffffffffff021916908373ffffffffffffffffffffffffffffffffffffffff1602179055508173ffffffffffffffffffffffffffffffffffffffff168173ffffffffffffffffffffffffffffffffffffffff167f8be0079c531659141344cd1fd0a4f28419497f9722a3daafe3b4186f6b6457e060405160405180910390a35050565b600081359050610e3e8161133c565b92915050565b600081359050610e5381611353565b92915050565b600060208284031215610e6b57600080fd5b6000610e7984828501610e2f565b91505092915050565b600060208284031215610e9457600080fd5b6000610ea284828501610e44565b91505092915050565b6000610eb7838361101e565b60208301905092915050565b610ecc816111e3565b82525050565b610edb816111d1565b82525050565b6000610eec82611136565b610ef68185611159565b9350610f0183611126565b8060005b83811015610f32578151610f198882610eab565b9750610f248361114c565b925050600181019050610f05565b5085935050505092915050565b6000610f4a82611141565b610f54818561116a565b9350610f6481856020860161121f565b610f6d8161132b565b840191505092915050565b6000610f8560268361116a565b91507f4f776e61626c653a206e6577206f776e657220697320746865207a65726f206160008301527f64647265737300000000000000000000000000000000000000000000000000006020830152604082019050919050565b6000610feb60208361116a565b91507f4f776e61626c653a2063616c6c6572206973206e6f7420746865206f776e65726000830152602082019050919050565b61102781611215565b82525050565b61103681611215565b82525050565b60006020820190506110516000830184610ed2565b92915050565b600060208201905061106c6000830184610ec3565b92915050565b6000604082019050818103600083015261108c8185610ee1565b905081810360208301526110a08184610ee1565b90509392505050565b600060208201905081810360008301526110c38184610f3f565b905092915050565b600060208201905081810360008301526110e481610f78565b9050919050565b6000602082019050818103600083015261110481610fde565b9050919050565b6000602082019050611120600083018461102d565b92915050565b6000819050602082019050919050565b600081519050919050565b600081519050919050565b6000602082019050919050565b600082825260208201905092915050565b600082825260208201905092915050565b600061118682611215565b915061119183611215565b9250827fffffffffffffffffffffffffffffffffffffffffffffffffffffffffffffffff038211156111c6576111c56112cd565b5b828201905092915050565b60006111dc826111f5565b9050919050565b60006111ee826111f5565b9050919050565b600073ffffffffffffffffffffffffffffffffffffffff82169050919050565b6000819050919050565b60005b8381101561123d578082015181840152602081019050611222565b8381111561124c576000848401525b50505050565b6000600282049050600182168061126a57607f821691505b6020821081141561127e5761127d6112fc565b5b50919050565b600061128f82611215565b91507fffffffffffffffffffffffffffffffffffffffffffffffffffffffffffffffff8214156112c2576112c16112cd565b5b600182019050919050565b7f4e487b7100000000000000000000000000000000000000000000000000000000600052601160045260246000fd5b7f4e487b7100000000000000000000000000000000000000000000000000000000600052602260045260246000fd5b6000601f19601f8301169050919050565b611345816111d1565b811461135057600080fd5b50565b61135c816111e3565b811461136757600080fd5b5056fea2646970667358221220e3f3745bc2cef989f2173519be40620810196f93c3b306ab7be7c7348f69b50c64736f6c63430008000033",
  "immutableReferences": {},
  "source": "// SPDX-License-Identifier: MIT\npragma solidity ^0.8.0;\n\nimport \"./Ownable.sol\";\nimport \"./SafeMath.sol\";\n\ncontract Fundraiser is Ownable {\n  using SafeMath for uint256;\n\n  struct Donation {\n    uint256 value;\n    //uint256 conversionFactor;\n    uint256 date;\n  }\n  mapping(address => Donation[]) private _donations;\n\n  event DonationReceived(address indexed donor, uint256 value);\n  event Withdraw(uint256 amount);\n\n  string public name;\n  string public url;\n  string public imageURL;\n  string public description;\n  address payable public beneficiary;\n  address public custodian;\n  uint256 public totalDonations;\n  uint256 public donationsCount;\n\n  constructor(\n    string memory _name,\n    string memory _url,\n    string memory _imageURL,\n    string memory _description,\n    address payable _beneficiary,\n    address _custodian\n  )\n  {\n    name = _name;\n    url = _url;\n    imageURL = _imageURL;\n    description = _description;\n    beneficiary = _beneficiary;\n    _transferOwnership(_custodian);\n  }\n\n  // Set New Beneficiary of a fundraiser\n  function setBeneficiary(address payable _beneficiary) public onlyOwner {\n    beneficiary = _beneficiary;\n  }\n\n  // Query My Donations count\n  function myDonationsCount() public view returns(uint256) {\n    return _donations[msg.sender].length;\n  }\n\n  // Make a donation\n  function donate() public payable {\n    Donation memory donation = Donation({\n      value: msg.value,\n      date: block.timestamp\n    });\n    _donations[msg.sender].push(donation);\n    totalDonations = totalDonations.add(msg.value);\n    donationsCount = donationsCount + 1;\n\n    emit DonationReceived(msg.sender, msg.value);\n  }\n\n  // Query my donations\n  function myDonations() public view returns(\n    uint256[] memory values,\n    uint256[] memory dates\n  )\n  {\n    uint256 count = myDonationsCount();\n    values = new uint256[](count);\n    dates = new uint256[](count);\n\n    for (uint256 i = 0; i < count; i++) {\n      Donation storage donation = _donations[msg.sender][i];\n      values[i] = donation.value;\n      dates[i] = donation.date;\n    }\n\n    return (values, dates);\n  }\n\n  // Withdraw Function\n  function withdraw() public onlyOwner {\n    uint balance = address(this).balance;\n    beneficiary.transfer(balance);\n\n    emit Withdraw(balance);\n  }\n\n  receive() external payable {\n    totalDonations = totalDonations.add(msg.value);\n    donationsCount++;\n  }\n}",
  "sourcePath": "C:/Users/PASCHAL/Downloads/FundCFX-main/FundCFX-main/smart-contract/contracts/Fundraiser.sol",
  "compiler": {
    "name": "solc",
    "version": "0.8.0+commit.c7dfd78e.Emscripten.clang"
  },
  "schemaVersion": "3.3.4",
  "updatedAt": "2022-09-05T22:33:18.648Z",
  "devdoc": {
    "kind": "dev",
    "methods": {
      "owner()": {
        "details": "Returns the address of the current owner."
      },
      "renounceOwnership()": {
        "details": "Leaves the contract without owner. It will not be possible to call `onlyOwner` functions anymore. Can only be called by the current owner. NOTE: Renouncing ownership will leave the contract without an owner, thereby removing any functionality that is only available to the owner."
      },
      "transferOwnership(address)": {
        "details": "Transfers ownership of the contract to a new account (`newOwner`). Can only be called by the current owner."
      }
    },
    "version": 1
  },
  "userdoc": {
    "kind": "user",
    "methods": {},
    "version": 1
  }
}