{
  "contractName": "FundraiserFactory",
  "abi": [
    {
      "inputs": [],
      "stateMutability": "nonpayable",
      "type": "constructor"
    },
    {
      "anonymous": false,
      "inputs": [
        {
          "indexed": true,
          "internalType": "contract Fundraiser",
          "name": "fundraiser",
          "type": "address"
        },
        {
          "indexed": true,
          "internalType": "address",
          "name": "owner",
          "type": "address"
        }
      ],
      "name": "FundraiserCreated",
      "type": "event"
    },
    {
      "anonymous": false,
      "inputs": [
        {
          "indexed": true,
          "internalType": "contract IndividualFundraiser",
          "name": "fundraiser",
          "type": "address"
        },
        {
          "indexed": true,
          "internalType": "address",
          "name": "owner",
          "type": "address"
        }
      ],
      "name": "IndividualFundraiserCreated",
      "type": "event"
    },
    {
      "inputs": [],
      "name": "owner",
      "outputs": [
        {
          "internalType": "address",
          "name": "",
          "type": "address"
        }
      ],
      "stateMutability": "view",
      "type": "function"
    },
    {
      "inputs": [
        {
          "internalType": "address",
          "name": "_address",
          "type": "address"
        }
      ],
      "name": "whitelist",
      "outputs": [],
      "stateMutability": "nonpayable",
      "type": "function"
    },
    {
      "inputs": [
        {
          "internalType": "address",
          "name": "_address",
          "type": "address"
        }
      ],
      "name": "checkWhitelisted",
      "outputs": [
        {
          "internalType": "bool",
          "name": "",
          "type": "bool"
        }
      ],
      "stateMutability": "view",
      "type": "function"
    },
    {
      "inputs": [
        {
          "internalType": "string",
          "name": "name",
          "type": "string"
        },
        {
          "internalType": "string",
          "name": "url",
          "type": "string"
        },
        {
          "internalType": "string",
          "name": "imageURL",
          "type": "string"
        },
        {
          "internalType": "string",
          "name": "description",
          "type": "string"
        },
        {
          "internalType": "address payable",
          "name": "beneficiary",
          "type": "address"
        }
      ],
      "name": "createFundraiser",
      "outputs": [],
      "stateMutability": "nonpayable",
      "type": "function"
    },
    {
      "inputs": [
        {
          "internalType": "string",
          "name": "name",
          "type": "string"
        },
        {
          "internalType": "string",
          "name": "url",
          "type": "string"
        },
        {
          "internalType": "string",
          "name": "imageURL",
          "type": "string"
        },
        {
          "internalType": "string",
          "name": "description",
          "type": "string"
        },
        {
          "internalType": "address payable",
          "name": "beneficiary",
          "type": "address"
        },
        {
          "internalType": "uint256",
          "name": "limit",
          "type": "uint256"
        }
      ],
      "name": "createIndividualFundraiser",
      "outputs": [],
      "stateMutability": "nonpayable",
      "type": "function"
    },
    {
      "inputs": [],
      "name": "fundraisersCount",
      "outputs": [
        {
          "internalType": "uint256",
          "name": "",
          "type": "uint256"
        }
      ],
      "stateMutability": "view",
      "type": "function"
    },
    {
      "inputs": [],
      "name": "individualFundraisersCount",
      "outputs": [
        {
          "internalType": "uint256",
          "name": "",
          "type": "uint256"
        }
      ],
      "stateMutability": "view",
      "type": "function"
    },
    {
      "inputs": [
        {
          "internalType": "uint256",
          "name": "limit",
          "type": "uint256"
        },
        {
          "internalType": "uint256",
          "name": "offset",
          "type": "uint256"
        }
      ],
      "name": "fundraisers",
      "outputs": [
        {
          "internalType": "contract Fundraiser[]",
          "name": "coll",
          "type": "address[]"
        }
      ],
      "stateMutability": "view",
      "type": "function"
    },
    {
      "inputs": [
        {
          "internalType": "uint256",
          "name": "limit",
          "type": "uint256"
        },
        {
          "internalType": "uint256",
          "name": "offset",
          "type": "uint256"
        }
      ],
      "name": "individualFundraisers",
      "outputs": [
        {
          "internalType": "contract IndividualFundraiser[]",
          "name": "coll",
          "type": "address[]"
        }
      ],
      "stateMutability": "view",
      "type": "function"
    }
  ],
  "bytecode": "0x608060405234801561001057600080fd5b50336000806101000a81548173ffffffffffffffffffffffffffffffffffffffff021916908373ffffffffffffffffffffffffffffffffffffffff160217905550614a1e806100606000396000f3fe60806040523480156200001157600080fd5b5060043610620000a05760003560e01c8063987dc5ef116200006f578063987dc5ef14620001535780639b19251a14620001895780639d3b435514620001a9578063af6a8ffc14620001cb578063bf01d25a14620001ed57620000a0565b806311d752ad14620000a557806320d8dad014620000c5578063704914f814620000fb5780638da5cb5b1462000131575b600080fd5b620000c36004803603810190620000bd919062000c03565b6200020d565b005b620000e36004803603810190620000dd919062000bd7565b620003af565b604051620000f29190620010fe565b60405180910390f35b62000119600480360381019062000113919062000de3565b62000405565b604051620001289190620010b6565b60405180910390f35b6200013b6200061d565b6040516200014a919062001099565b60405180910390f35b6200017160048036038101906200016b919062000de3565b62000641565b604051620001809190620010da565b60405180910390f35b620001a76004803603810190620001a1919062000bd7565b62000859565b005b620001b362000945565b604051620001c29190620012a3565b60405180910390f35b620001d562000952565b604051620001e49190620012a3565b60405180910390f35b6200020b600480360381019062000205919062000ce9565b6200095f565b005b60011515600360003373ffffffffffffffffffffffffffffffffffffffff1673ffffffffffffffffffffffffffffffffffffffff16815260200190815260200160002060009054906101000a900460ff16151514620002a3576040517f08c379a00000000000000000000000000000000000000000000000000000000081526004016200029a906200125f565b60405180910390fd5b6000858585858533604051620002b99062000b04565b620002ca969594939291906200111b565b604051809103906000f080158015620002e7573d6000803e3d6000fd5b5090506001819080600181540180825580915050600190039060005260206000200160009091909190916101000a81548173ffffffffffffffffffffffffffffffffffffffff021916908373ffffffffffffffffffffffffffffffffffffffff1602179055503373ffffffffffffffffffffffffffffffffffffffff168173ffffffffffffffffffffffffffffffffffffffff167fa2398daac0c8053a1e3c0280916c2ec6bc884f0959c27e639a4db829b7eabfb160405160405180910390a3505050505050565b6000600360008373ffffffffffffffffffffffffffffffffffffffff1673ffffffffffffffffffffffffffffffffffffffff16815260200190815260200160002060009054906101000a900460ff169050919050565b60606200041162000945565b82111562000456576040517f08c379a00000000000000000000000000000000000000000000000000000000081526004016200044d906200123d565b60405180910390fd5b6000826200046362000945565b6200046f919062001401565b905083811062000480578362000482565b805b9050601481106200049557601462000497565b805b90508067ffffffffffffffff811115620004da577f4e487b7100000000000000000000000000000000000000000000000000000000600052604160045260246000fd5b604051908082528060200260200182016040528015620005095781602001602082028036833780820191505090505b50915060005b81811015620006155760018185620005289190620013a4565b8154811062000560577f4e487b7100000000000000000000000000000000000000000000000000000000600052603260045260246000fd5b9060005260206000200160009054906101000a900473ffffffffffffffffffffffffffffffffffffffff16838281518110620005c5577f4e487b7100000000000000000000000000000000000000000000000000000000600052603260045260246000fd5b602002602001019073ffffffffffffffffffffffffffffffffffffffff16908173ffffffffffffffffffffffffffffffffffffffff168152505080806200060c906200152f565b9150506200050f565b505092915050565b60008054906101000a900473ffffffffffffffffffffffffffffffffffffffff1681565b60606200064d62000952565b82111562000692576040517f08c379a000000000000000000000000000000000000000000000000000000000815260040162000689906200123d565b60405180910390fd5b6000826200069f62000952565b620006ab919062001401565b9050838110620006bc5783620006be565b805b905060148110620006d1576014620006d3565b805b90508067ffffffffffffffff81111562000716577f4e487b7100000000000000000000000000000000000000000000000000000000600052604160045260246000fd5b604051908082528060200260200182016040528015620007455781602001602082028036833780820191505090505b50915060005b81811015620008515760028185620007649190620013a4565b815481106200079c577f4e487b7100000000000000000000000000000000000000000000000000000000600052603260045260246000fd5b9060005260206000200160009054906101000a900473ffffffffffffffffffffffffffffffffffffffff1683828151811062000801577f4e487b7100000000000000000000000000000000000000000000000000000000600052603260045260246000fd5b602002602001019073ffffffffffffffffffffffffffffffffffffffff16908173ffffffffffffffffffffffffffffffffffffffff1681525050808062000848906200152f565b9150506200074b565b505092915050565b3373ffffffffffffffffffffffffffffffffffffffff1660008054906101000a900473ffffffffffffffffffffffffffffffffffffffff1673ffffffffffffffffffffffffffffffffffffffff1614620008ea576040517f08c379a0000000000000000000000000000000000000000000000000000000008152600401620008e19062001281565b60405180910390fd5b6001600360008373ffffffffffffffffffffffffffffffffffffffff1673ffffffffffffffffffffffffffffffffffffffff16815260200190815260200160002060006101000a81548160ff02191690831515021790555050565b6000600180549050905090565b6000600280549050905090565b60011515600360003373ffffffffffffffffffffffffffffffffffffffff1673ffffffffffffffffffffffffffffffffffffffff16815260200190815260200160002060009054906101000a900460ff16151514620009f5576040517f08c379a0000000000000000000000000000000000000000000000000000000008152600401620009ec906200125f565b60405180910390fd5b60008686868686338760405162000a0c9062000b12565b62000a1e9796959493929190620011a4565b604051809103906000f08015801562000a3b573d6000803e3d6000fd5b5090506002819080600181540180825580915050600190039060005260206000200160009091909190916101000a81548173ffffffffffffffffffffffffffffffffffffffff021916908373ffffffffffffffffffffffffffffffffffffffff1602179055503373ffffffffffffffffffffffffffffffffffffffff168173ffffffffffffffffffffffffffffffffffffffff167f3a3b82e5cbdceb8a586ab5822e20cbdc0b23052390d26f61cf59794c5f439fad60405160405180910390a350505050505050565b61198c806200163b83390190565b611a228062002fc783390190565b600062000b3762000b3184620012f4565b620012c0565b90508281526020810184848401111562000b5057600080fd5b62000b5d848285620014ea565b509392505050565b60008135905062000b7681620015ec565b92915050565b60008135905062000b8d8162001606565b92915050565b600082601f83011262000ba557600080fd5b813562000bb784826020860162000b20565b91505092915050565b60008135905062000bd18162001620565b92915050565b60006020828403121562000bea57600080fd5b600062000bfa8482850162000b65565b91505092915050565b600080600080600060a0868803121562000c1c57600080fd5b600086013567ffffffffffffffff81111562000c3757600080fd5b62000c458882890162000b93565b955050602086013567ffffffffffffffff81111562000c6357600080fd5b62000c718882890162000b93565b945050604086013567ffffffffffffffff81111562000c8f57600080fd5b62000c9d8882890162000b93565b935050606086013567ffffffffffffffff81111562000cbb57600080fd5b62000cc98882890162000b93565b925050608062000cdc8882890162000b7c565b9150509295509295909350565b60008060008060008060c0878903121562000d0357600080fd5b600087013567ffffffffffffffff81111562000d1e57600080fd5b62000d2c89828a0162000b93565b965050602087013567ffffffffffffffff81111562000d4a57600080fd5b62000d5889828a0162000b93565b955050604087013567ffffffffffffffff81111562000d7657600080fd5b62000d8489828a0162000b93565b945050606087013567ffffffffffffffff81111562000da257600080fd5b62000db089828a0162000b93565b935050608062000dc389828a0162000b7c565b92505060a062000dd689828a0162000bc0565b9150509295509295509295565b6000806040838503121562000df757600080fd5b600062000e078582860162000bc0565b925050602062000e1a8582860162000bc0565b9150509250929050565b600062000e32838362000f5f565b60208301905092915050565b600062000e4c838362000f70565b60208301905092915050565b62000e638162001450565b82525050565b62000e74816200143c565b82525050565b600062000e878262001347565b62000e93818562001382565b935062000ea08362001327565b8060005b8381101562000ed757815162000ebb888262000e24565b975062000ec88362001368565b92505060018101905062000ea4565b5085935050505092915050565b600062000ef18262001352565b62000efd818562001382565b935062000f0a8362001337565b8060005b8381101562000f4157815162000f25888262000e3e565b975062000f328362001375565b92505060018101905062000f0e565b5085935050505092915050565b62000f598162001464565b82525050565b62000f6a816200149a565b82525050565b62000f7b81620014c2565b82525050565b600062000f8e826200135d565b62000f9a818562001393565b935062000fac818560208601620014f9565b62000fb781620015db565b840191505092915050565b600062000fd160148362001393565b91507f6f6666736574206f7574206f6620626f756e64730000000000000000000000006000830152602082019050919050565b600062001013601a8362001393565b91507f41646472657373206973206e6f742077686974656c69737465640000000000006000830152602082019050919050565b60006200105560208362001393565b91507f4f6e6c79206f776e65722063616e2077686974656c69737420616464726573736000830152602082019050919050565b620010938162001490565b82525050565b6000602082019050620010b0600083018462000e69565b92915050565b60006020820190508181036000830152620010d2818462000e7a565b905092915050565b60006020820190508181036000830152620010f6818462000ee4565b905092915050565b600060208201905062001115600083018462000f4e565b92915050565b600060c082019050818103600083015262001137818962000f81565b905081810360208301526200114d818862000f81565b9050818103604083015262001163818762000f81565b9050818103606083015262001179818662000f81565b90506200118a608083018562000e58565b6200119960a083018462000e69565b979650505050505050565b600060e0820190508181036000830152620011c0818a62000f81565b90508181036020830152620011d6818962000f81565b90508181036040830152620011ec818862000f81565b9050818103606083015262001202818762000f81565b905062001213608083018662000e58565b6200122260a083018562000e69565b6200123160c083018462001088565b98975050505050505050565b60006020820190508181036000830152620012588162000fc2565b9050919050565b600060208201905081810360008301526200127a8162001004565b9050919050565b600060208201905081810360008301526200129c8162001046565b9050919050565b6000602082019050620012ba600083018462001088565b92915050565b6000604051905081810181811067ffffffffffffffff82111715620012ea57620012e9620015ac565b5b8060405250919050565b600067ffffffffffffffff821115620013125762001311620015ac565b5b601f19601f8301169050602081019050919050565b6000819050602082019050919050565b6000819050602082019050919050565b600081519050919050565b600081519050919050565b600081519050919050565b6000602082019050919050565b6000602082019050919050565b600082825260208201905092915050565b600082825260208201905092915050565b6000620013b18262001490565b9150620013be8362001490565b9250827fffffffffffffffffffffffffffffffffffffffffffffffffffffffffffffffff03821115620013f657620013f56200157d565b5b828201905092915050565b60006200140e8262001490565b91506200141b8362001490565b9250828210156200143157620014306200157d565b5b828203905092915050565b6000620014498262001470565b9050919050565b60006200145d8262001470565b9050919050565b60008115159050919050565b600073ffffffffffffffffffffffffffffffffffffffff82169050919050565b6000819050919050565b6000620014a782620014ae565b9050919050565b6000620014bb8262001470565b9050919050565b6000620014cf82620014d6565b9050919050565b6000620014e38262001470565b9050919050565b82818337600083830152505050565b60005b8381101562001519578082015181840152602081019050620014fc565b8381111562001529576000848401525b50505050565b60006200153c8262001490565b91507fffffffffffffffffffffffffffffffffffffffffffffffffffffffffffffffff8214156200157257620015716200157d565b5b600182019050919050565b7f4e487b7100000000000000000000000000000000000000000000000000000000600052601160045260246000fd5b7f4e487b7100000000000000000000000000000000000000000000000000000000600052604160045260246000fd5b6000601f19601f8301169050919050565b620015f7816200143c565b81146200160357600080fd5b50565b620016118162001450565b81146200161d57600080fd5b50565b6200162b8162001490565b81146200163757600080fd5b5056fe60806040523480156200001157600080fd5b506040516200198c3803806200198c833981810160405281019062000037919062000335565b620000576200004b6200011960201b60201c565b6200012160201b60201c565b85600290805190602001906200006f929190620001e5565b50846003908051906020019062000088929190620001e5565b508360049080519060200190620000a1929190620001e5565b508260059080519060200190620000ba929190620001e5565b5081600660006101000a81548173ffffffffffffffffffffffffffffffffffffffff021916908373ffffffffffffffffffffffffffffffffffffffff1602179055506200010d816200012160201b60201c565b505050505050620005dc565b600033905090565b60008060009054906101000a900473ffffffffffffffffffffffffffffffffffffffff169050816000806101000a81548173ffffffffffffffffffffffffffffffffffffffff021916908373ffffffffffffffffffffffffffffffffffffffff1602179055508173ffffffffffffffffffffffffffffffffffffffff168173ffffffffffffffffffffffffffffffffffffffff167f8be0079c531659141344cd1fd0a4f28419497f9722a3daafe3b4186f6b6457e060405160405180910390a35050565b828054620001f39062000514565b90600052602060002090601f01602090048101928262000217576000855562000263565b82601f106200023257805160ff191683800117855562000263565b8280016001018555821562000263579182015b828111156200026257825182559160200191906001019062000245565b5b50905062000272919062000276565b5090565b5b808211156200029157600081600090555060010162000277565b5090565b6000620002ac620002a68462000463565b6200042f565b905082815260208101848484011115620002c557600080fd5b620002d2848285620004de565b509392505050565b600081519050620002eb81620005a8565b92915050565b6000815190506200030281620005c2565b92915050565b600082601f8301126200031a57600080fd5b81516200032c84826020860162000295565b91505092915050565b60008060008060008060c087890312156200034f57600080fd5b600087015167ffffffffffffffff8111156200036a57600080fd5b6200037889828a0162000308565b965050602087015167ffffffffffffffff8111156200039657600080fd5b620003a489828a0162000308565b955050604087015167ffffffffffffffff811115620003c257600080fd5b620003d089828a0162000308565b945050606087015167ffffffffffffffff811115620003ee57600080fd5b620003fc89828a0162000308565b93505060806200040f89828a01620002f1565b92505060a06200042289828a01620002da565b9150509295509295509295565b6000604051905081810181811067ffffffffffffffff8211171562000459576200045862000579565b5b8060405250919050565b600067ffffffffffffffff82111562000481576200048062000579565b5b601f19601f8301169050602081019050919050565b6000620004a382620004be565b9050919050565b6000620004b782620004be565b9050919050565b600073ffffffffffffffffffffffffffffffffffffffff82169050919050565b60005b83811015620004fe578082015181840152602081019050620004e1565b838111156200050e576000848401525b50505050565b600060028204905060018216806200052d57607f821691505b602082108114156200054457620005436200054a565b5b50919050565b7f4e487b7100000000000000000000000000000000000000000000000000000000600052602260045260246000fd5b7f4e487b7100000000000000000000000000000000000000000000000000000000600052604160045260246000fd5b620005b38162000496565b8114620005bf57600080fd5b50565b620005cd81620004aa565b8114620005d957600080fd5b50565b6113a080620005ec6000396000f3fe6080604052600436106100f75760003560e01c80635600f04f1161008a578063b90497e011610059578063b90497e014610311578063de2ed8931461033c578063ed88c68e14610367578063f2fde38b1461037157610131565b80635600f04f14610279578063715018a6146102a45780637284e416146102bb5780638da5cb5b146102e657610131565b80631f522595116100c65780631f522595146101e1578063375b74c31461020c57806338af3eed146102375780633ccfd60b1461026257610131565b80630180b97c1461013657806306fdde03146101615780631a57f7b41461018c5780631c31f710146101b857610131565b36610131576101113460085461039a90919063ffffffff16565b6008819055506009600081548092919061012a90611284565b9190505550005b600080fd5b34801561014257600080fd5b5061014b6103b0565b604051610158919061110b565b60405180910390f35b34801561016d57600080fd5b506101766103fa565b60405161018391906110a9565b60405180910390f35b34801561019857600080fd5b506101a1610488565b6040516101af929190611072565b60405180910390f35b3480156101c457600080fd5b506101df60048036038101906101da9190610e82565b6106bb565b005b3480156101ed57600080fd5b506101f661077b565b604051610203919061110b565b60405180910390f35b34801561021857600080fd5b50610221610781565b60405161022e919061103c565b60405180910390f35b34801561024357600080fd5b5061024c6107a7565b6040516102599190611057565b60405180910390f35b34801561026e57600080fd5b506102776107cd565b005b34801561028557600080fd5b5061028e6108f1565b60405161029b91906110a9565b60405180910390f35b3480156102b057600080fd5b506102b961097f565b005b3480156102c757600080fd5b506102d0610a07565b6040516102dd91906110a9565b60405180910390f35b3480156102f257600080fd5b506102fb610a95565b604051610308919061103c565b60405180910390f35b34801561031d57600080fd5b50610326610abe565b60405161033391906110a9565b60405180910390f35b34801561034857600080fd5b50610351610b4c565b60405161035e919061110b565b60405180910390f35b61036f610b52565b005b34801561037d57600080fd5b5061039860048036038101906103939190610e59565b610c6b565b005b600081836103a8919061117b565b905092915050565b6000600160003373ffffffffffffffffffffffffffffffffffffffff1673ffffffffffffffffffffffffffffffffffffffff16815260200190815260200160002080549050905090565b6002805461040790611252565b80601f016020809104026020016040519081016040528092919081815260200182805461043390611252565b80156104805780601f1061045557610100808354040283529160200191610480565b820191906000526020600020905b81548152906001019060200180831161046357829003601f168201915b505050505081565b60608060006104956103b0565b90508067ffffffffffffffff8111156104d7577f4e487b7100000000000000000000000000000000000000000000000000000000600052604160045260246000fd5b6040519080825280602002602001820160405280156105055781602001602082028036833780820191505090505b5092508067ffffffffffffffff811115610548577f4e487b7100000000000000000000000000000000000000000000000000000000600052604160045260246000fd5b6040519080825280602002602001820160405280156105765781602001602082028036833780820191505090505b50915060005b818110156106b5576000600160003373ffffffffffffffffffffffffffffffffffffffff1673ffffffffffffffffffffffffffffffffffffffff16815260200190815260200160002082815481106105fd577f4e487b7100000000000000000000000000000000000000000000000000000000600052603260045260246000fd5b90600052602060002090600202019050806000015485838151811061064b577f4e487b7100000000000000000000000000000000000000000000000000000000600052603260045260246000fd5b6020026020010181815250508060010154848381518110610695577f4e487b7100000000000000000000000000000000000000000000000000000000600052603260045260246000fd5b6020026020010181815250505080806106ad90611284565b91505061057c565b50509091565b6106c3610d63565b73ffffffffffffffffffffffffffffffffffffffff166106e1610a95565b73ffffffffffffffffffffffffffffffffffffffff1614610737576040517f08c379a000000000000000000000000000000000000000000000000000000000815260040161072e906110eb565b60405180910390fd5b80600660006101000a81548173ffffffffffffffffffffffffffffffffffffffff021916908373ffffffffffffffffffffffffffffffffffffffff16021790555050565b60095481565b600760009054906101000a900473ffffffffffffffffffffffffffffffffffffffff1681565b600660009054906101000a900473ffffffffffffffffffffffffffffffffffffffff1681565b6107d5610d63565b73ffffffffffffffffffffffffffffffffffffffff166107f3610a95565b73ffffffffffffffffffffffffffffffffffffffff1614610849576040517f08c379a0000000000000000000000000000000000000000000000000000000008152600401610840906110eb565b60405180910390fd5b6000479050600660009054906101000a900473ffffffffffffffffffffffffffffffffffffffff1673ffffffffffffffffffffffffffffffffffffffff166108fc829081150290604051600060405180830381858888f193505050501580156108b6573d6000803e3d6000fd5b507f5b6b431d4476a211bb7d41c20d1aab9ae2321deee0d20be3d9fc9b1093fa6e3d816040516108e6919061110b565b60405180910390a150565b600380546108fe90611252565b80601f016020809104026020016040519081016040528092919081815260200182805461092a90611252565b80156109775780601f1061094c57610100808354040283529160200191610977565b820191906000526020600020905b81548152906001019060200180831161095a57829003601f168201915b505050505081565b610987610d63565b73ffffffffffffffffffffffffffffffffffffffff166109a5610a95565b73ffffffffffffffffffffffffffffffffffffffff16146109fb576040517f08c379a00000000000000000000000000000000000000000000000000000000081526004016109f2906110eb565b60405180910390fd5b610a056000610d6b565b565b60058054610a1490611252565b80601f0160208091040260200160405190810160405280929190818152602001828054610a4090611252565b8015610a8d5780601f10610a6257610100808354040283529160200191610a8d565b820191906000526020600020905b815481529060010190602001808311610a7057829003601f168201915b505050505081565b60008060009054906101000a900473ffffffffffffffffffffffffffffffffffffffff16905090565b60048054610acb90611252565b80601f0160208091040260200160405190810160405280929190818152602001828054610af790611252565b8015610b445780601f10610b1957610100808354040283529160200191610b44565b820191906000526020600020905b815481529060010190602001808311610b2757829003601f168201915b505050505081565b60085481565b60006040518060400160405280348152602001428152509050600160003373ffffffffffffffffffffffffffffffffffffffff1673ffffffffffffffffffffffffffffffffffffffff16815260200190815260200160002081908060018154018082558091505060019003906000526020600020906002020160009091909190915060008201518160000155602082015181600101555050610bff3460085461039a90919063ffffffff16565b6008819055506001600954610c14919061117b565b6009819055503373ffffffffffffffffffffffffffffffffffffffff167f264f630d9efa0d07053a31163641d9fcc0adafc9d9e76f1c37c2ce3a558d2c5234604051610c60919061110b565b60405180910390a250565b610c73610d63565b73ffffffffffffffffffffffffffffffffffffffff16610c91610a95565b73ffffffffffffffffffffffffffffffffffffffff1614610ce7576040517f08c379a0000000000000000000000000000000000000000000000000000000008152600401610cde906110eb565b60405180910390fd5b600073ffffffffffffffffffffffffffffffffffffffff168173ffffffffffffffffffffffffffffffffffffffff161415610d57576040517f08c379a0000000000000000000000000000000000000000000000000000000008152600401610d4e906110cb565b60405180910390fd5b610d6081610d6b565b50565b600033905090565b60008060009054906101000a900473ffffffffffffffffffffffffffffffffffffffff169050816000806101000a81548173ffffffffffffffffffffffffffffffffffffffff021916908373ffffffffffffffffffffffffffffffffffffffff1602179055508173ffffffffffffffffffffffffffffffffffffffff168173ffffffffffffffffffffffffffffffffffffffff167f8be0079c531659141344cd1fd0a4f28419497f9722a3daafe3b4186f6b6457e060405160405180910390a35050565b600081359050610e3e8161133c565b92915050565b600081359050610e5381611353565b92915050565b600060208284031215610e6b57600080fd5b6000610e7984828501610e2f565b91505092915050565b600060208284031215610e9457600080fd5b6000610ea284828501610e44565b91505092915050565b6000610eb7838361101e565b60208301905092915050565b610ecc816111e3565b82525050565b610edb816111d1565b82525050565b6000610eec82611136565b610ef68185611159565b9350610f0183611126565b8060005b83811015610f32578151610f198882610eab565b9750610f248361114c565b925050600181019050610f05565b5085935050505092915050565b6000610f4a82611141565b610f54818561116a565b9350610f6481856020860161121f565b610f6d8161132b565b840191505092915050565b6000610f8560268361116a565b91507f4f776e61626c653a206e6577206f776e657220697320746865207a65726f206160008301527f64647265737300000000000000000000000000000000000000000000000000006020830152604082019050919050565b6000610feb60208361116a565b91507f4f776e61626c653a2063616c6c6572206973206e6f7420746865206f776e65726000830152602082019050919050565b61102781611215565b82525050565b61103681611215565b82525050565b60006020820190506110516000830184610ed2565b92915050565b600060208201905061106c6000830184610ec3565b92915050565b6000604082019050818103600083015261108c8185610ee1565b905081810360208301526110a08184610ee1565b90509392505050565b600060208201905081810360008301526110c38184610f3f565b905092915050565b600060208201905081810360008301526110e481610f78565b9050919050565b6000602082019050818103600083015261110481610fde565b9050919050565b6000602082019050611120600083018461102d565b92915050565b6000819050602082019050919050565b600081519050919050565b600081519050919050565b6000602082019050919050565b600082825260208201905092915050565b600082825260208201905092915050565b600061118682611215565b915061119183611215565b9250827fffffffffffffffffffffffffffffffffffffffffffffffffffffffffffffffff038211156111c6576111c56112cd565b5b828201905092915050565b60006111dc826111f5565b9050919050565b60006111ee826111f5565b9050919050565b600073ffffffffffffffffffffffffffffffffffffffff82169050919050565b6000819050919050565b60005b8381101561123d578082015181840152602081019050611222565b8381111561124c576000848401525b50505050565b6000600282049050600182168061126a57607f821691505b6020821081141561127e5761127d6112fc565b5b50919050565b600061128f82611215565b91507fffffffffffffffffffffffffffffffffffffffffffffffffffffffffffffffff8214156112c2576112c16112cd565b5b600182019050919050565b7f4e487b7100000000000000000000000000000000000000000000000000000000600052601160045260246000fd5b7f4e487b7100000000000000000000000000000000000000000000000000000000600052602260045260246000fd5b6000601f19601f8301169050919050565b611345816111d1565b811461135057600080fd5b50565b61135c816111e3565b811461136757600080fd5b5056fea264697066735822122046a9062df56fc99cebb9ec6884080902f0f677d7ca4e131e4a981cd34d8ac63464736f6c6343000800003360806040523480156200001157600080fd5b5060405162001a2238038062001a22833981810160405281019062000037919062000354565b620000576200004b6200012160201b60201c565b6200012960201b60201c565b86600290805190602001906200006f929190620001ed565b50856003908051906020019062000088929190620001ed565b508460049080519060200190620000a1929190620001ed565b508360059080519060200190620000ba929190620001ed565b5082600660006101000a81548173ffffffffffffffffffffffffffffffffffffffff021916908373ffffffffffffffffffffffffffffffffffffffff1602179055506200010d826200012960201b60201c565b80600a819055505050505050505062000636565b600033905090565b60008060009054906101000a900473ffffffffffffffffffffffffffffffffffffffff169050816000806101000a81548173ffffffffffffffffffffffffffffffffffffffff021916908373ffffffffffffffffffffffffffffffffffffffff1602179055508173ffffffffffffffffffffffffffffffffffffffff168173ffffffffffffffffffffffffffffffffffffffff167f8be0079c531659141344cd1fd0a4f28419497f9722a3daafe3b4186f6b6457e060405160405180910390a35050565b828054620001fb9062000554565b90600052602060002090601f0160209004810192826200021f57600085556200026b565b82601f106200023a57805160ff19168380011785556200026b565b828001600101855582156200026b579182015b828111156200026a5782518255916020019190600101906200024d565b5b5090506200027a91906200027e565b5090565b5b80821115620002995760008160009055506001016200027f565b5090565b6000620002b4620002ae8462000499565b62000465565b905082815260208101848484011115620002cd57600080fd5b620002da8482856200051e565b509392505050565b600081519050620002f381620005e8565b92915050565b6000815190506200030a8162000602565b92915050565b600082601f8301126200032257600080fd5b8151620003348482602086016200029d565b91505092915050565b6000815190506200034e816200061c565b92915050565b600080600080600080600060e0888a0312156200037057600080fd5b600088015167ffffffffffffffff8111156200038b57600080fd5b620003998a828b0162000310565b975050602088015167ffffffffffffffff811115620003b757600080fd5b620003c58a828b0162000310565b965050604088015167ffffffffffffffff811115620003e357600080fd5b620003f18a828b0162000310565b955050606088015167ffffffffffffffff8111156200040f57600080fd5b6200041d8a828b0162000310565b9450506080620004308a828b01620002f9565b93505060a0620004438a828b01620002e2565b92505060c0620004568a828b016200033d565b91505092959891949750929550565b6000604051905081810181811067ffffffffffffffff821117156200048f576200048e620005b9565b5b8060405250919050565b600067ffffffffffffffff821115620004b757620004b6620005b9565b5b601f19601f8301169050602081019050919050565b6000620004d982620004f4565b9050919050565b6000620004ed82620004f4565b9050919050565b600073ffffffffffffffffffffffffffffffffffffffff82169050919050565b6000819050919050565b60005b838110156200053e57808201518184015260208101905062000521565b838111156200054e576000848401525b50505050565b600060028204905060018216806200056d57607f821691505b602082108114156200058457620005836200058a565b5b50919050565b7f4e487b7100000000000000000000000000000000000000000000000000000000600052602260045260246000fd5b7f4e487b7100000000000000000000000000000000000000000000000000000000600052604160045260246000fd5b620005f381620004cc565b8114620005ff57600080fd5b50565b6200060d81620004e0565b81146200061957600080fd5b50565b620006278162000514565b81146200063357600080fd5b50565b6113dc80620006466000396000f3fe6080604052600436106101025760003560e01c80635600f04f11610095578063a4d66daf11610064578063a4d66daf1461031c578063b90497e014610347578063de2ed89314610372578063ed88c68e1461039d578063f2fde38b146103a75761013c565b80635600f04f14610284578063715018a6146102af5780637284e416146102c65780638da5cb5b146102f15761013c565b80631f522595116100d15780631f522595146101ec578063375b74c31461021757806338af3eed146102425780633ccfd60b1461026d5761013c565b80630180b97c1461014157806306fdde031461016c5780631a57f7b4146101975780631c31f710146101c35761013c565b3661013c5761011c346008546103d090919063ffffffff16565b60088190555060096000815480929190610135906112c0565b9190505550005b600080fd5b34801561014d57600080fd5b506101566103e6565b6040516101639190611147565b60405180910390f35b34801561017857600080fd5b50610181610430565b60405161018e91906110e5565b60405180910390f35b3480156101a357600080fd5b506101ac6104be565b6040516101ba9291906110ae565b60405180910390f35b3480156101cf57600080fd5b506101ea60048036038101906101e59190610ebe565b6106f1565b005b3480156101f857600080fd5b506102016107b1565b60405161020e9190611147565b60405180910390f35b34801561022357600080fd5b5061022c6107b7565b6040516102399190611078565b60405180910390f35b34801561024e57600080fd5b506102576107dd565b6040516102649190611093565b60405180910390f35b34801561027957600080fd5b50610282610803565b005b34801561029057600080fd5b50610299610927565b6040516102a691906110e5565b60405180910390f35b3480156102bb57600080fd5b506102c46109b5565b005b3480156102d257600080fd5b506102db610a3d565b6040516102e891906110e5565b60405180910390f35b3480156102fd57600080fd5b50610306610acb565b6040516103139190611078565b60405180910390f35b34801561032857600080fd5b50610331610af4565b60405161033e9190611147565b60405180910390f35b34801561035357600080fd5b5061035c610afa565b60405161036991906110e5565b60405180910390f35b34801561037e57600080fd5b50610387610b88565b6040516103949190611147565b60405180910390f35b6103a5610b8e565b005b3480156103b357600080fd5b506103ce60048036038101906103c99190610e95565b610ca7565b005b600081836103de91906111b7565b905092915050565b6000600160003373ffffffffffffffffffffffffffffffffffffffff1673ffffffffffffffffffffffffffffffffffffffff16815260200190815260200160002080549050905090565b6002805461043d9061128e565b80601f01602080910402602001604051908101604052809291908181526020018280546104699061128e565b80156104b65780601f1061048b576101008083540402835291602001916104b6565b820191906000526020600020905b81548152906001019060200180831161049957829003601f168201915b505050505081565b60608060006104cb6103e6565b90508067ffffffffffffffff81111561050d577f4e487b7100000000000000000000000000000000000000000000000000000000600052604160045260246000fd5b60405190808252806020026020018201604052801561053b5781602001602082028036833780820191505090505b5092508067ffffffffffffffff81111561057e577f4e487b7100000000000000000000000000000000000000000000000000000000600052604160045260246000fd5b6040519080825280602002602001820160405280156105ac5781602001602082028036833780820191505090505b50915060005b818110156106eb576000600160003373ffffffffffffffffffffffffffffffffffffffff1673ffffffffffffffffffffffffffffffffffffffff1681526020019081526020016000208281548110610633577f4e487b7100000000000000000000000000000000000000000000000000000000600052603260045260246000fd5b906000526020600020906002020190508060000154858381518110610681577f4e487b7100000000000000000000000000000000000000000000000000000000600052603260045260246000fd5b60200260200101818152505080600101548483815181106106cb577f4e487b7100000000000000000000000000000000000000000000000000000000600052603260045260246000fd5b6020026020010181815250505080806106e3906112c0565b9150506105b2565b50509091565b6106f9610d9f565b73ffffffffffffffffffffffffffffffffffffffff16610717610acb565b73ffffffffffffffffffffffffffffffffffffffff161461076d576040517f08c379a000000000000000000000000000000000000000000000000000000000815260040161076490611127565b60405180910390fd5b80600660006101000a81548173ffffffffffffffffffffffffffffffffffffffff021916908373ffffffffffffffffffffffffffffffffffffffff16021790555050565b60095481565b600760009054906101000a900473ffffffffffffffffffffffffffffffffffffffff1681565b600660009054906101000a900473ffffffffffffffffffffffffffffffffffffffff1681565b61080b610d9f565b73ffffffffffffffffffffffffffffffffffffffff16610829610acb565b73ffffffffffffffffffffffffffffffffffffffff161461087f576040517f08c379a000000000000000000000000000000000000000000000000000000000815260040161087690611127565b60405180910390fd5b6000479050600660009054906101000a900473ffffffffffffffffffffffffffffffffffffffff1673ffffffffffffffffffffffffffffffffffffffff166108fc829081150290604051600060405180830381858888f193505050501580156108ec573d6000803e3d6000fd5b507f5b6b431d4476a211bb7d41c20d1aab9ae2321deee0d20be3d9fc9b1093fa6e3d8160405161091c9190611147565b60405180910390a150565b600380546109349061128e565b80601f01602080910402602001604051908101604052809291908181526020018280546109609061128e565b80156109ad5780601f10610982576101008083540402835291602001916109ad565b820191906000526020600020905b81548152906001019060200180831161099057829003601f168201915b505050505081565b6109bd610d9f565b73ffffffffffffffffffffffffffffffffffffffff166109db610acb565b73ffffffffffffffffffffffffffffffffffffffff1614610a31576040517f08c379a0000000000000000000000000000000000000000000000000000000008152600401610a2890611127565b60405180910390fd5b610a3b6000610da7565b565b60058054610a4a9061128e565b80601f0160208091040260200160405190810160405280929190818152602001828054610a769061128e565b8015610ac35780601f10610a9857610100808354040283529160200191610ac3565b820191906000526020600020905b815481529060010190602001808311610aa657829003601f168201915b505050505081565b60008060009054906101000a900473ffffffffffffffffffffffffffffffffffffffff16905090565b600a5481565b60048054610b079061128e565b80601f0160208091040260200160405190810160405280929190818152602001828054610b339061128e565b8015610b805780601f10610b5557610100808354040283529160200191610b80565b820191906000526020600020905b815481529060010190602001808311610b6357829003601f168201915b505050505081565b60085481565b60006040518060400160405280348152602001428152509050600160003373ffffffffffffffffffffffffffffffffffffffff1673ffffffffffffffffffffffffffffffffffffffff16815260200190815260200160002081908060018154018082558091505060019003906000526020600020906002020160009091909190915060008201518160000155602082015181600101555050610c3b346008546103d090919063ffffffff16565b6008819055506001600954610c5091906111b7565b6009819055503373ffffffffffffffffffffffffffffffffffffffff167f264f630d9efa0d07053a31163641d9fcc0adafc9d9e76f1c37c2ce3a558d2c5234604051610c9c9190611147565b60405180910390a250565b610caf610d9f565b73ffffffffffffffffffffffffffffffffffffffff16610ccd610acb565b73ffffffffffffffffffffffffffffffffffffffff1614610d23576040517f08c379a0000000000000000000000000000000000000000000000000000000008152600401610d1a90611127565b60405180910390fd5b600073ffffffffffffffffffffffffffffffffffffffff168173ffffffffffffffffffffffffffffffffffffffff161415610d93576040517f08c379a0000000000000000000000000000000000000000000000000000000008152600401610d8a90611107565b60405180910390fd5b610d9c81610da7565b50565b600033905090565b60008060009054906101000a900473ffffffffffffffffffffffffffffffffffffffff169050816000806101000a81548173ffffffffffffffffffffffffffffffffffffffff021916908373ffffffffffffffffffffffffffffffffffffffff1602179055508173ffffffffffffffffffffffffffffffffffffffff168173ffffffffffffffffffffffffffffffffffffffff167f8be0079c531659141344cd1fd0a4f28419497f9722a3daafe3b4186f6b6457e060405160405180910390a35050565b600081359050610e7a81611378565b92915050565b600081359050610e8f8161138f565b92915050565b600060208284031215610ea757600080fd5b6000610eb584828501610e6b565b91505092915050565b600060208284031215610ed057600080fd5b6000610ede84828501610e80565b91505092915050565b6000610ef3838361105a565b60208301905092915050565b610f088161121f565b82525050565b610f178161120d565b82525050565b6000610f2882611172565b610f328185611195565b9350610f3d83611162565b8060005b83811015610f6e578151610f558882610ee7565b9750610f6083611188565b925050600181019050610f41565b5085935050505092915050565b6000610f868261117d565b610f9081856111a6565b9350610fa081856020860161125b565b610fa981611367565b840191505092915050565b6000610fc16026836111a6565b91507f4f776e61626c653a206e6577206f776e657220697320746865207a65726f206160008301527f64647265737300000000000000000000000000000000000000000000000000006020830152604082019050919050565b60006110276020836111a6565b91507f4f776e61626c653a2063616c6c6572206973206e6f7420746865206f776e65726000830152602082019050919050565b61106381611251565b82525050565b61107281611251565b82525050565b600060208201905061108d6000830184610f0e565b92915050565b60006020820190506110a86000830184610eff565b92915050565b600060408201905081810360008301526110c88185610f1d565b905081810360208301526110dc8184610f1d565b90509392505050565b600060208201905081810360008301526110ff8184610f7b565b905092915050565b6000602082019050818103600083015261112081610fb4565b9050919050565b600060208201905081810360008301526111408161101a565b9050919050565b600060208201905061115c6000830184611069565b92915050565b6000819050602082019050919050565b600081519050919050565b600081519050919050565b6000602082019050919050565b600082825260208201905092915050565b600082825260208201905092915050565b60006111c282611251565b91506111cd83611251565b9250827fffffffffffffffffffffffffffffffffffffffffffffffffffffffffffffffff0382111561120257611201611309565b5b828201905092915050565b600061121882611231565b9050919050565b600061122a82611231565b9050919050565b600073ffffffffffffffffffffffffffffffffffffffff82169050919050565b6000819050919050565b60005b8381101561127957808201518184015260208101905061125e565b83811115611288576000848401525b50505050565b600060028204905060018216806112a657607f821691505b602082108114156112ba576112b9611338565b5b50919050565b60006112cb82611251565b91507fffffffffffffffffffffffffffffffffffffffffffffffffffffffffffffffff8214156112fe576112fd611309565b5b600182019050919050565b7f4e487b7100000000000000000000000000000000000000000000000000000000600052601160045260246000fd5b7f4e487b7100000000000000000000000000000000000000000000000000000000600052602260045260246000fd5b6000601f19601f8301169050919050565b6113818161120d565b811461138c57600080fd5b50565b6113988161121f565b81146113a357600080fd5b5056fea26469706673582212202ac8a5834628cc0af213d74a4c4d71c80fa3677294fc97819226af9c4a9afa7d64736f6c63430008000033a2646970667358221220a873fe46b73be7d6ca65a9b162a2d85d27d4e035d4bbc1093e67e2fd845fbb2964736f6c63430008000033",
  "immutableReferences": {},
  "source": "// SPDX-License-Identifier: MIT\r\npragma solidity ^0.8.0;\r\n\r\nimport \"./Fundraiser.sol\";\r\nimport \"./IndividualFundraiser.sol\";\r\n\r\ncontract FundraiserFactory {\r\n  address public owner;\r\n  Fundraiser[] private _fundraisers;\r\n  IndividualFundraiser[] private _individualFundraisers;\r\n\r\n  event FundraiserCreated(Fundraiser indexed fundraiser, address indexed owner);\r\n  event IndividualFundraiserCreated(IndividualFundraiser indexed fundraiser, address indexed owner);\r\n\r\n  mapping(address => bool) private whitelisted;\r\n\r\n  uint256 constant maxLimit = 20;\r\n\r\n  constructor() {\r\n    owner = msg.sender;\r\n  }\r\n\r\n  //whitelist address\r\n  function whitelist(address _address) public {\r\n    require(owner == msg.sender, \"Only owner can whitelist address\");\r\n    whitelisted[_address] = true;\r\n  }\r\n\r\n  //Check if address is whitelisted\r\n  function checkWhitelisted(address _address) public view returns(bool) {\r\n    return whitelisted[_address];\r\n  }\r\n\r\n  // Creates organisation fundraiser\r\n  function createFundraiser(\r\n    string memory name,\r\n    string memory url,\r\n    string memory imageURL,\r\n    string memory description,\r\n    address payable beneficiary\r\n  )\r\n  public\r\n  {\r\n    require(whitelisted[msg.sender] == true, \"Address is not whitelisted\");\r\n    Fundraiser fundraiser = new Fundraiser(\r\n      name,\r\n      url,\r\n      imageURL,\r\n      description,\r\n      beneficiary,\r\n      msg.sender\r\n    );\r\n    _fundraisers.push(fundraiser);\r\n    emit FundraiserCreated(fundraiser, msg.sender);\r\n  }\r\n\r\n  // Creates individual fundraiser\r\n  function createIndividualFundraiser(\r\n    string memory name,\r\n    string memory url,\r\n    string memory imageURL,\r\n    string memory description,\r\n    address payable beneficiary,\r\n    uint256 limit\r\n  )\r\n  public\r\n  {\r\n    require(whitelisted[msg.sender] == true, \"Address is not whitelisted\");\r\n    IndividualFundraiser fundraiser = new IndividualFundraiser(\r\n      name,\r\n      url,\r\n      imageURL,\r\n      description,\r\n      beneficiary,\r\n      msg.sender,\r\n      limit\r\n    );\r\n    _individualFundraisers.push(fundraiser);\r\n    emit IndividualFundraiserCreated(fundraiser, msg.sender);\r\n  }\r\n\r\n  // Query the number of fundrisers in our smart contract\r\n  function fundraisersCount() public view returns(uint256) {\r\n    return _fundraisers.length;\r\n  }\r\n\r\n  // Query the number of individual fundrisers in our smart contract\r\n  function individualFundraisersCount() public view returns(uint256) {\r\n    return _individualFundraisers.length;\r\n  }\r\n\r\n  // Query all fundraisers in our smart contract\r\n  function fundraisers(uint256 limit, uint256 offset) \r\n    public \r\n    view\r\n    returns(Fundraiser[] memory coll)\r\n  {\r\n    require(offset <= fundraisersCount(), \"offset out of bounds\");\r\n    uint256 size = fundraisersCount() - offset;\r\n    // size should not exceed the maxLimit\r\n    size = size < limit ? size : limit;\r\n    size = size < maxLimit ? size : maxLimit;\r\n    coll = new Fundraiser[](size);\r\n\r\n    for(uint256 i = 0; i < size; i++) {\r\n      coll[i] = _fundraisers[offset + i];\r\n    }\r\n    \r\n    return coll;\r\n  }\r\n\r\n  // Query all individual fundraisers in our smart contract\r\n  function individualFundraisers(uint256 limit, uint256 offset) \r\n    public \r\n    view\r\n    returns(IndividualFundraiser[] memory coll)\r\n  {\r\n    require(offset <= individualFundraisersCount(), \"offset out of bounds\");\r\n    uint256 size = individualFundraisersCount() - offset;\r\n    // size should not exceed the maxLimit\r\n    size = size < limit ? size : limit;\r\n    size = size < maxLimit ? size : maxLimit;\r\n    coll = new IndividualFundraiser[](size);\r\n\r\n    for(uint256 i = 0; i < size; i++) {\r\n      coll[i] = _individualFundraisers[offset + i];\r\n    }\r\n    \r\n    return coll;\r\n  }\r\n}",
  "sourcePath": "C:\\Users\\PASCHAL\\Documents\\new\\FundKyiv\\smart-contract\\contracts\\FundraiserFactory.sol",
  "compiler": {
    "name": "solc",
    "version": "0.8.0+commit.c7dfd78e.Emscripten.clang"
  },
  "schemaVersion": "3.4.10",
  "updatedAt": "2022-10-03T17:21:44.021Z",
  "devdoc": {
    "kind": "dev",
    "methods": {},
    "version": 1
  },
  "userdoc": {
    "kind": "user",
    "methods": {},
    "version": 1
  }
}