{
  "contractName": "IndividualFundraiser",
  "abi": [
    {
      "inputs": [
        {
          "internalType": "string",
          "name": "_name",
          "type": "string"
        },
        {
          "internalType": "string",
          "name": "_url",
          "type": "string"
        },
        {
          "internalType": "string",
          "name": "_imageURL",
          "type": "string"
        },
        {
          "internalType": "string",
          "name": "_description",
          "type": "string"
        },
        {
          "internalType": "address payable",
          "name": "_beneficiary",
          "type": "address"
        },
        {
          "internalType": "address",
          "name": "_custodian",
          "type": "address"
        },
        {
          "internalType": "uint256",
          "name": "_limit",
          "type": "uint256"
        }
      ],
      "stateMutability": "nonpayable",
      "type": "constructor"
    },
    {
      "anonymous": false,
      "inputs": [
        {
          "indexed": true,
          "internalType": "address",
          "name": "donor",
          "type": "address"
        },
        {
          "indexed": false,
          "internalType": "uint256",
          "name": "value",
          "type": "uint256"
        }
      ],
      "name": "DonationReceived",
      "type": "event"
    },
    {
      "anonymous": false,
      "inputs": [
        {
          "indexed": true,
          "internalType": "address",
          "name": "previousOwner",
          "type": "address"
        },
        {
          "indexed": true,
          "internalType": "address",
          "name": "newOwner",
          "type": "address"
        }
      ],
      "name": "OwnershipTransferred",
      "type": "event"
    },
    {
      "anonymous": false,
      "inputs": [
        {
          "indexed": false,
          "internalType": "uint256",
          "name": "amount",
          "type": "uint256"
        }
      ],
      "name": "Withdraw",
      "type": "event"
    },
    {
      "inputs": [],
      "name": "beneficiary",
      "outputs": [
        {
          "internalType": "address payable",
          "name": "",
          "type": "address"
        }
      ],
      "stateMutability": "view",
      "type": "function"
    },
    {
      "inputs": [],
      "name": "custodian",
      "outputs": [
        {
          "internalType": "address",
          "name": "",
          "type": "address"
        }
      ],
      "stateMutability": "view",
      "type": "function"
    },
    {
      "inputs": [],
      "name": "description",
      "outputs": [
        {
          "internalType": "string",
          "name": "",
          "type": "string"
        }
      ],
      "stateMutability": "view",
      "type": "function"
    },
    {
      "inputs": [],
      "name": "donationsCount",
      "outputs": [
        {
          "internalType": "uint256",
          "name": "",
          "type": "uint256"
        }
      ],
      "stateMutability": "view",
      "type": "function"
    },
    {
      "inputs": [],
      "name": "imageURL",
      "outputs": [
        {
          "internalType": "string",
          "name": "",
          "type": "string"
        }
      ],
      "stateMutability": "view",
      "type": "function"
    },
    {
      "inputs": [],
      "name": "limit",
      "outputs": [
        {
          "internalType": "uint256",
          "name": "",
          "type": "uint256"
        }
      ],
      "stateMutability": "view",
      "type": "function"
    },
    {
      "inputs": [],
      "name": "name",
      "outputs": [
        {
          "internalType": "string",
          "name": "",
          "type": "string"
        }
      ],
      "stateMutability": "view",
      "type": "function"
    },
    {
      "inputs": [],
      "name": "owner",
      "outputs": [
        {
          "internalType": "address",
          "name": "",
          "type": "address"
        }
      ],
      "stateMutability": "view",
      "type": "function"
    },
    {
      "inputs": [],
      "name": "renounceOwnership",
      "outputs": [],
      "stateMutability": "nonpayable",
      "type": "function"
    },
    {
      "inputs": [],
      "name": "totalDonations",
      "outputs": [
        {
          "internalType": "uint256",
          "name": "",
          "type": "uint256"
        }
      ],
      "stateMutability": "view",
      "type": "function"
    },
    {
      "inputs": [
        {
          "internalType": "address",
          "name": "newOwner",
          "type": "address"
        }
      ],
      "name": "transferOwnership",
      "outputs": [],
      "stateMutability": "nonpayable",
      "type": "function"
    },
    {
      "inputs": [],
      "name": "url",
      "outputs": [
        {
          "internalType": "string",
          "name": "",
          "type": "string"
        }
      ],
      "stateMutability": "view",
      "type": "function"
    },
    {
      "stateMutability": "payable",
      "type": "receive"
    },
    {
      "inputs": [
        {
          "internalType": "address payable",
          "name": "_beneficiary",
          "type": "address"
        }
      ],
      "name": "setBeneficiary",
      "outputs": [],
      "stateMutability": "nonpayable",
      "type": "function"
    },
    {
      "inputs": [],
      "name": "myDonationsCount",
      "outputs": [
        {
          "internalType": "uint256",
          "name": "",
          "type": "uint256"
        }
      ],
      "stateMutability": "view",
      "type": "function"
    },
    {
      "inputs": [],
      "name": "donate",
      "outputs": [],
      "stateMutability": "payable",
      "type": "function"
    },
    {
      "inputs": [],
      "name": "myDonations",
      "outputs": [
        {
          "internalType": "uint256[]",
          "name": "values",
          "type": "uint256[]"
        },
        {
          "internalType": "uint256[]",
          "name": "dates",
          "type": "uint256[]"
        }
      ],
      "stateMutability": "view",
      "type": "function"
    },
    {
      "inputs": [],
      "name": "withdraw",
      "outputs": [],
      "stateMutability": "nonpayable",
      "type": "function"
    }
  ],
  "bytecode": "0x60806040523480156200001157600080fd5b5060405162001a2238038062001a22833981810160405281019062000037919062000354565b620000576200004b6200012160201b60201c565b6200012960201b60201c565b86600290805190602001906200006f929190620001ed565b50856003908051906020019062000088929190620001ed565b508460049080519060200190620000a1929190620001ed565b508360059080519060200190620000ba929190620001ed565b5082600660006101000a81548173ffffffffffffffffffffffffffffffffffffffff021916908373ffffffffffffffffffffffffffffffffffffffff1602179055506200010d826200012960201b60201c565b80600a819055505050505050505062000636565b600033905090565b60008060009054906101000a900473ffffffffffffffffffffffffffffffffffffffff169050816000806101000a81548173ffffffffffffffffffffffffffffffffffffffff021916908373ffffffffffffffffffffffffffffffffffffffff1602179055508173ffffffffffffffffffffffffffffffffffffffff168173ffffffffffffffffffffffffffffffffffffffff167f8be0079c531659141344cd1fd0a4f28419497f9722a3daafe3b4186f6b6457e060405160405180910390a35050565b828054620001fb9062000554565b90600052602060002090601f0160209004810192826200021f57600085556200026b565b82601f106200023a57805160ff19168380011785556200026b565b828001600101855582156200026b579182015b828111156200026a5782518255916020019190600101906200024d565b5b5090506200027a91906200027e565b5090565b5b80821115620002995760008160009055506001016200027f565b5090565b6000620002b4620002ae8462000499565b62000465565b905082815260208101848484011115620002cd57600080fd5b620002da8482856200051e565b509392505050565b600081519050620002f381620005e8565b92915050565b6000815190506200030a8162000602565b92915050565b600082601f8301126200032257600080fd5b8151620003348482602086016200029d565b91505092915050565b6000815190506200034e816200061c565b92915050565b600080600080600080600060e0888a0312156200037057600080fd5b600088015167ffffffffffffffff8111156200038b57600080fd5b620003998a828b0162000310565b975050602088015167ffffffffffffffff811115620003b757600080fd5b620003c58a828b0162000310565b965050604088015167ffffffffffffffff811115620003e357600080fd5b620003f18a828b0162000310565b955050606088015167ffffffffffffffff8111156200040f57600080fd5b6200041d8a828b0162000310565b9450506080620004308a828b01620002f9565b93505060a0620004438a828b01620002e2565b92505060c0620004568a828b016200033d565b91505092959891949750929550565b6000604051905081810181811067ffffffffffffffff821117156200048f576200048e620005b9565b5b8060405250919050565b600067ffffffffffffffff821115620004b757620004b6620005b9565b5b601f19601f8301169050602081019050919050565b6000620004d982620004f4565b9050919050565b6000620004ed82620004f4565b9050919050565b600073ffffffffffffffffffffffffffffffffffffffff82169050919050565b6000819050919050565b60005b838110156200053e57808201518184015260208101905062000521565b838111156200054e576000848401525b50505050565b600060028204905060018216806200056d57607f821691505b602082108114156200058457620005836200058a565b5b50919050565b7f4e487b7100000000000000000000000000000000000000000000000000000000600052602260045260246000fd5b7f4e487b7100000000000000000000000000000000000000000000000000000000600052604160045260246000fd5b620005f381620004cc565b8114620005ff57600080fd5b50565b6200060d81620004e0565b81146200061957600080fd5b50565b620006278162000514565b81146200063357600080fd5b50565b6113dc80620006466000396000f3fe6080604052600436106101025760003560e01c80635600f04f11610095578063a4d66daf11610064578063a4d66daf1461031c578063b90497e014610347578063de2ed89314610372578063ed88c68e1461039d578063f2fde38b146103a75761013c565b80635600f04f14610284578063715018a6146102af5780637284e416146102c65780638da5cb5b146102f15761013c565b80631f522595116100d15780631f522595146101ec578063375b74c31461021757806338af3eed146102425780633ccfd60b1461026d5761013c565b80630180b97c1461014157806306fdde031461016c5780631a57f7b4146101975780631c31f710146101c35761013c565b3661013c5761011c346008546103d090919063ffffffff16565b60088190555060096000815480929190610135906112c0565b9190505550005b600080fd5b34801561014d57600080fd5b506101566103e6565b6040516101639190611147565b60405180910390f35b34801561017857600080fd5b50610181610430565b60405161018e91906110e5565b60405180910390f35b3480156101a357600080fd5b506101ac6104be565b6040516101ba9291906110ae565b60405180910390f35b3480156101cf57600080fd5b506101ea60048036038101906101e59190610ebe565b6106f1565b005b3480156101f857600080fd5b506102016107b1565b60405161020e9190611147565b60405180910390f35b34801561022357600080fd5b5061022c6107b7565b6040516102399190611078565b60405180910390f35b34801561024e57600080fd5b506102576107dd565b6040516102649190611093565b60405180910390f35b34801561027957600080fd5b50610282610803565b005b34801561029057600080fd5b50610299610927565b6040516102a691906110e5565b60405180910390f35b3480156102bb57600080fd5b506102c46109b5565b005b3480156102d257600080fd5b506102db610a3d565b6040516102e891906110e5565b60405180910390f35b3480156102fd57600080fd5b50610306610acb565b6040516103139190611078565b60405180910390f35b34801561032857600080fd5b50610331610af4565b60405161033e9190611147565b60405180910390f35b34801561035357600080fd5b5061035c610afa565b60405161036991906110e5565b60405180910390f35b34801561037e57600080fd5b50610387610b88565b6040516103949190611147565b60405180910390f35b6103a5610b8e565b005b3480156103b357600080fd5b506103ce60048036038101906103c99190610e95565b610ca7565b005b600081836103de91906111b7565b905092915050565b6000600160003373ffffffffffffffffffffffffffffffffffffffff1673ffffffffffffffffffffffffffffffffffffffff16815260200190815260200160002080549050905090565b6002805461043d9061128e565b80601f01602080910402602001604051908101604052809291908181526020018280546104699061128e565b80156104b65780601f1061048b576101008083540402835291602001916104b6565b820191906000526020600020905b81548152906001019060200180831161049957829003601f168201915b505050505081565b60608060006104cb6103e6565b90508067ffffffffffffffff81111561050d577f4e487b7100000000000000000000000000000000000000000000000000000000600052604160045260246000fd5b60405190808252806020026020018201604052801561053b5781602001602082028036833780820191505090505b5092508067ffffffffffffffff81111561057e577f4e487b7100000000000000000000000000000000000000000000000000000000600052604160045260246000fd5b6040519080825280602002602001820160405280156105ac5781602001602082028036833780820191505090505b50915060005b818110156106eb576000600160003373ffffffffffffffffffffffffffffffffffffffff1673ffffffffffffffffffffffffffffffffffffffff1681526020019081526020016000208281548110610633577f4e487b7100000000000000000000000000000000000000000000000000000000600052603260045260246000fd5b906000526020600020906002020190508060000154858381518110610681577f4e487b7100000000000000000000000000000000000000000000000000000000600052603260045260246000fd5b60200260200101818152505080600101548483815181106106cb577f4e487b7100000000000000000000000000000000000000000000000000000000600052603260045260246000fd5b6020026020010181815250505080806106e3906112c0565b9150506105b2565b50509091565b6106f9610d9f565b73ffffffffffffffffffffffffffffffffffffffff16610717610acb565b73ffffffffffffffffffffffffffffffffffffffff161461076d576040517f08c379a000000000000000000000000000000000000000000000000000000000815260040161076490611127565b60405180910390fd5b80600660006101000a81548173ffffffffffffffffffffffffffffffffffffffff021916908373ffffffffffffffffffffffffffffffffffffffff16021790555050565b60095481565b600760009054906101000a900473ffffffffffffffffffffffffffffffffffffffff1681565b600660009054906101000a900473ffffffffffffffffffffffffffffffffffffffff1681565b61080b610d9f565b73ffffffffffffffffffffffffffffffffffffffff16610829610acb565b73ffffffffffffffffffffffffffffffffffffffff161461087f576040517f08c379a000000000000000000000000000000000000000000000000000000000815260040161087690611127565b60405180910390fd5b6000479050600660009054906101000a900473ffffffffffffffffffffffffffffffffffffffff1673ffffffffffffffffffffffffffffffffffffffff166108fc829081150290604051600060405180830381858888f193505050501580156108ec573d6000803e3d6000fd5b507f5b6b431d4476a211bb7d41c20d1aab9ae2321deee0d20be3d9fc9b1093fa6e3d8160405161091c9190611147565b60405180910390a150565b600380546109349061128e565b80601f01602080910402602001604051908101604052809291908181526020018280546109609061128e565b80156109ad5780601f10610982576101008083540402835291602001916109ad565b820191906000526020600020905b81548152906001019060200180831161099057829003601f168201915b505050505081565b6109bd610d9f565b73ffffffffffffffffffffffffffffffffffffffff166109db610acb565b73ffffffffffffffffffffffffffffffffffffffff1614610a31576040517f08c379a0000000000000000000000000000000000000000000000000000000008152600401610a2890611127565b60405180910390fd5b610a3b6000610da7565b565b60058054610a4a9061128e565b80601f0160208091040260200160405190810160405280929190818152602001828054610a769061128e565b8015610ac35780601f10610a9857610100808354040283529160200191610ac3565b820191906000526020600020905b815481529060010190602001808311610aa657829003601f168201915b505050505081565b60008060009054906101000a900473ffffffffffffffffffffffffffffffffffffffff16905090565b600a5481565b60048054610b079061128e565b80601f0160208091040260200160405190810160405280929190818152602001828054610b339061128e565b8015610b805780601f10610b5557610100808354040283529160200191610b80565b820191906000526020600020905b815481529060010190602001808311610b6357829003601f168201915b505050505081565b60085481565b60006040518060400160405280348152602001428152509050600160003373ffffffffffffffffffffffffffffffffffffffff1673ffffffffffffffffffffffffffffffffffffffff16815260200190815260200160002081908060018154018082558091505060019003906000526020600020906002020160009091909190915060008201518160000155602082015181600101555050610c3b346008546103d090919063ffffffff16565b6008819055506001600954610c5091906111b7565b6009819055503373ffffffffffffffffffffffffffffffffffffffff167f264f630d9efa0d07053a31163641d9fcc0adafc9d9e76f1c37c2ce3a558d2c5234604051610c9c9190611147565b60405180910390a250565b610caf610d9f565b73ffffffffffffffffffffffffffffffffffffffff16610ccd610acb565b73ffffffffffffffffffffffffffffffffffffffff1614610d23576040517f08c379a0000000000000000000000000000000000000000000000000000000008152600401610d1a90611127565b60405180910390fd5b600073ffffffffffffffffffffffffffffffffffffffff168173ffffffffffffffffffffffffffffffffffffffff161415610d93576040517f08c379a0000000000000000000000000000000000000000000000000000000008152600401610d8a90611107565b60405180910390fd5b610d9c81610da7565b50565b600033905090565b60008060009054906101000a900473ffffffffffffffffffffffffffffffffffffffff169050816000806101000a81548173ffffffffffffffffffffffffffffffffffffffff021916908373ffffffffffffffffffffffffffffffffffffffff1602179055508173ffffffffffffffffffffffffffffffffffffffff168173ffffffffffffffffffffffffffffffffffffffff167f8be0079c531659141344cd1fd0a4f28419497f9722a3daafe3b4186f6b6457e060405160405180910390a35050565b600081359050610e7a81611378565b92915050565b600081359050610e8f8161138f565b92915050565b600060208284031215610ea757600080fd5b6000610eb584828501610e6b565b91505092915050565b600060208284031215610ed057600080fd5b6000610ede84828501610e80565b91505092915050565b6000610ef3838361105a565b60208301905092915050565b610f088161121f565b82525050565b610f178161120d565b82525050565b6000610f2882611172565b610f328185611195565b9350610f3d83611162565b8060005b83811015610f6e578151610f558882610ee7565b9750610f6083611188565b925050600181019050610f41565b5085935050505092915050565b6000610f868261117d565b610f9081856111a6565b9350610fa081856020860161125b565b610fa981611367565b840191505092915050565b6000610fc16026836111a6565b91507f4f776e61626c653a206e6577206f776e657220697320746865207a65726f206160008301527f64647265737300000000000000000000000000000000000000000000000000006020830152604082019050919050565b60006110276020836111a6565b91507f4f776e61626c653a2063616c6c6572206973206e6f7420746865206f776e65726000830152602082019050919050565b61106381611251565b82525050565b61107281611251565b82525050565b600060208201905061108d6000830184610f0e565b92915050565b60006020820190506110a86000830184610eff565b92915050565b600060408201905081810360008301526110c88185610f1d565b905081810360208301526110dc8184610f1d565b90509392505050565b600060208201905081810360008301526110ff8184610f7b565b905092915050565b6000602082019050818103600083015261112081610fb4565b9050919050565b600060208201905081810360008301526111408161101a565b9050919050565b600060208201905061115c6000830184611069565b92915050565b6000819050602082019050919050565b600081519050919050565b600081519050919050565b6000602082019050919050565b600082825260208201905092915050565b600082825260208201905092915050565b60006111c282611251565b91506111cd83611251565b9250827fffffffffffffffffffffffffffffffffffffffffffffffffffffffffffffffff0382111561120257611201611309565b5b828201905092915050565b600061121882611231565b9050919050565b600061122a82611231565b9050919050565b600073ffffffffffffffffffffffffffffffffffffffff82169050919050565b6000819050919050565b60005b8381101561127957808201518184015260208101905061125e565b83811115611288576000848401525b50505050565b600060028204905060018216806112a657607f821691505b602082108114156112ba576112b9611338565b5b50919050565b60006112cb82611251565b91507fffffffffffffffffffffffffffffffffffffffffffffffffffffffffffffffff8214156112fe576112fd611309565b5b600182019050919050565b7f4e487b7100000000000000000000000000000000000000000000000000000000600052601160045260246000fd5b7f4e487b7100000000000000000000000000000000000000000000000000000000600052602260045260246000fd5b6000601f19601f8301169050919050565b6113818161120d565b811461138c57600080fd5b50565b6113988161121f565b81146113a357600080fd5b5056fea26469706673582212202ac8a5834628cc0af213d74a4c4d71c80fa3677294fc97819226af9c4a9afa7d64736f6c63430008000033",
  "immutableReferences": {},
  "source": " // SPDX-License-Identifier: MIT\r\npragma solidity ^0.8.0;\r\n\r\nimport \"./Ownable.sol\";\r\nimport \"./SafeMath.sol\";\r\n\r\ncontract IndividualFundraiser is Ownable {\r\n  using SafeMath for uint256;\r\n\r\n  struct Donation {\r\n    uint256 value;\r\n    //uint256 conversionFactor;\r\n    uint256 date;\r\n  }\r\n  mapping(address => Donation[]) private _donations;\r\n\r\n  event DonationReceived(address indexed donor, uint256 value);\r\n  event Withdraw(uint256 amount);\r\n\r\n  string public name;\r\n  string public url;\r\n  string public imageURL;\r\n  string public description;\r\n  address payable public beneficiary;\r\n  address public custodian;\r\n  uint256 public totalDonations;\r\n  uint256 public donationsCount;\r\n  uint256 public limit;\r\n\r\n  constructor(\r\n    string memory _name,\r\n    string memory _url,\r\n    string memory _imageURL,\r\n    string memory _description,\r\n    address payable _beneficiary,\r\n    address _custodian,\r\n    uint256 _limit\r\n  )\r\n  {\r\n    name = _name;\r\n    url = _url;\r\n    imageURL = _imageURL;\r\n    description = _description;\r\n    beneficiary = _beneficiary;\r\n    _transferOwnership(_custodian);\r\n    limit = _limit;\r\n  }\r\n\r\n  // Set New Beneficiary of a fundraiser\r\n  function setBeneficiary(address payable _beneficiary) public onlyOwner {\r\n    beneficiary = _beneficiary;\r\n  }\r\n\r\n  // Query My Donations count\r\n  function myDonationsCount() public view returns(uint256) {\r\n    return _donations[msg.sender].length;\r\n  }\r\n\r\n  // Make a donation\r\n  function donate() public payable {\r\n    Donation memory donation = Donation({\r\n      value: msg.value,\r\n      date: block.timestamp\r\n    });\r\n    _donations[msg.sender].push(donation);\r\n    totalDonations = totalDonations.add(msg.value);\r\n    donationsCount = donationsCount + 1;\r\n\r\n    emit DonationReceived(msg.sender, msg.value);\r\n  }\r\n\r\n  // Query my donations\r\n  function myDonations() public view returns(\r\n    uint256[] memory values,\r\n    uint256[] memory dates\r\n  )\r\n  {\r\n    uint256 count = myDonationsCount();\r\n    values = new uint256[](count);\r\n    dates = new uint256[](count);\r\n\r\n    for (uint256 i = 0; i < count; i++) {\r\n      Donation storage donation = _donations[msg.sender][i];\r\n      values[i] = donation.value;\r\n      dates[i] = donation.date;\r\n    }\r\n\r\n    return (values, dates);\r\n  }\r\n\r\n  // Withdraw Function\r\n  function withdraw() public onlyOwner {\r\n    uint balance = address(this).balance;\r\n    beneficiary.transfer(balance);\r\n\r\n    emit Withdraw(balance);\r\n  }\r\n\r\n  receive() external payable {\r\n    totalDonations = totalDonations.add(msg.value);\r\n    donationsCount++;\r\n  }\r\n}",
  "sourcePath": "C:\\Users\\PASCHAL\\Documents\\new\\FundKyiv\\smart-contract\\contracts\\IndividualFundraiser.sol",
  "compiler": {
    "name": "solc",
    "version": "0.8.0+commit.c7dfd78e.Emscripten.clang"
  },
  "schemaVersion": "3.4.10",
  "updatedAt": "2022-10-03T17:21:44.034Z",
  "devdoc": {
    "kind": "dev",
    "methods": {
      "owner()": {
        "details": "Returns the address of the current owner."
      },
      "renounceOwnership()": {
        "details": "Leaves the contract without owner. It will not be possible to call `onlyOwner` functions anymore. Can only be called by the current owner. NOTE: Renouncing ownership will leave the contract without an owner, thereby removing any functionality that is only available to the owner."
      },
      "transferOwnership(address)": {
        "details": "Transfers ownership of the contract to a new account (`newOwner`). Can only be called by the current owner."
      }
    },
    "version": 1
  },
  "userdoc": {
    "kind": "user",
    "methods": {},
    "version": 1
  }
}